:1000000012C02CC02BC02AC029C028C027C026C0BF
:1000100025C024C023C022C021C020C01FC01EC0D4
:100020001DC01CC01BC011241FBECFE5D4E0DEBF25
:10003000CDBF10E0A0E6B0E0E2E6F3E002C005903C
:100040000D92A036B107D9F710E0A0E6B0E001C0EC
:100050001D92A036B107E1F702D081C1D1CF2F9216
:100060003F924F925F926F927F928F929F92AF9248
:10007000BF92CF92DF92EF92FF920F931F93DF9385
:10008000CF93CDB7DEB72C970FB6F894DEBF0FBE77
:10009000CDBF8FEF87BB14BA1A86198618861F82C8
:1000A0001E821D821C821B82222433244424552458
:1000B0006624772488249924AA24BB24CC24DD2414
:1000C000EE24FF2400E010E01C861B86A0E0B0E0D8
:1000D0001A82198283B390E023B330E0207230702B
:1000E000BC016071707084FD06C12115310509F0F5
:1000F00002C120E030E04B815C814130510511F4B8
:1001000021E030E080E090E0ED81FE81319711F454
:1001100081E090E02823392380E090E0F1E02F1681
:10012000310411F481E090E02823392380E090E04D
:1001300041E04416510411F481E090E02823392372
:1001400080E090E051E06516710411F481E090E0E8
:100150002823392380E090E0E1E08E16910411F429
:1001600081E090E02823392380E090E0F1E0AF16B1
:10017000B10411F481E090E02823392380E090E07D
:1001800041E0C416D10411F481E090E02823392322
:1001900080E090E051E0E516F10411F481E090E098
:1001A0002823392380E090E00130110511F481E02B
:1001B00090E02823392380E090E0EB85FC8531979F
:1001C00011F481E090E02823392380E090E0A13011
:1001D000B10511F481E090E02823392380E090E01C
:1001E00049815A814130510511F481E090E0282382
:1001F000392380E0E985FA85319709F481E090E0C0
:100200004F8158854130510509F491E0892390E0F0
:1002100028233923232B59F118BA81E090E09887DD
:100220008F839E838D839C838B8361E0262E312C6C
:1002300051E0452E512C41E0642E712C31E0832E8B
:10024000912C21E0A22EB12C91E0C92ED12C81E07D
:10025000E82EF12C01E010E01C870B87A1E0B0E054
:10026000BA83A98360E070E020E030E03AC09AE20F
:1002700098BBBA83A983AB85BC851C870B87870194
:100280007601650154014301320121012B803C803C
:10029000ED81FE81FC83EB834F8158855E834D8326
:1002A00089859A8598878F83DDCF88E893E1E9E196
:1002B000F0E03197F1F70197D1F79AE298BB88E81F
:1002C00093E1E9E1F0E03197F1F70197D1F783B3DA
:1002D000682F70E06071707083B3282F30E0207257
:1002E00030706115710519F421153105F1F2E1E065
:1002F000F0E0FA87E98790E06031710509F491E058
:1003000080E02032310509F481E09923B9F0882397
:10031000A9F048E55BE1E9E1F0E03197F1F7415000
:100320005040C9F718BA48EB5BE0E9E1F0E03197DB
:10033000F1F741505040C9F7FAE2F8BB672B29F4B6
:10034000882319F042E048BB48BB992309F4C2CE88
:10035000232B09F0BFCE58E258BB58BBBBCEF89454
:02036000FFCFCD
:00000001FF
