:100000000C942A000C943C000C943C000C943C0092
:100010000C943C000C943C000C943C000C943C0070
:100020000C943C000C943C000C943C000C943C0060
:100030000C943C000C943C000C943C000C943C0050
:100040000C943C000C943C000C943C000C943C0040
:100050000C943C0011241FBECFE5D4E0DEBFCDBF21
:1000600010E0A0E6B0E001C01D92A236B107E1F7B2
:100070000E9497000C94F6000C94000080E487B96D
:1000800083E886B9089587B1876087B9369A86B1C3
:100090008823E9F3349A24B135B1C9010895AB98A6
:1000A000AA9AA998A89A80E29EE40197F1F7089588
:1000B000AB9AAA98A99AA898089580916000909107
:1000C000610001969093610080936000AB9AAA98BA
:1000D000A99AA89884EF91E028EC30E0F9013197D3
:1000E000F1F70197D9F70895AB98AA98A99AA8981B
:1000F000B49B08C0B39B06C0B29B04C0B19B02C0B6
:10010000B099F2CF0895AB9AAA98A998A898B49BF1
:1001100008C0B39B06C0B29B04C0B19B02C0B0999B
:10012000F2CF0895AB98AA98A998A89808958FE05F
:100130008ABB1BBA17BA8FEF88BB84BB81BB949A6A
:10014000959A80E487B983E886B980E00E944300ED
:100150008E5E924018F00E949200F7CFB49B07C0C9
:10016000B29905C0B09B03C00E9458003BC0B4992F
:1001700004C0B29902C0B09906C0B49907C0B29B3E
:1001800005C0B09B03C00E9483002CC0B49B04C078
:10019000B29902C0B09B06C0B49B07C0B29B05C019
:1001A000B09903C00E9474001DC0B6990FC0B599E4
:1001B0000DC0B4990BC0B39909C0B29907C0B199E9
:1001C00005C0B09903C00E945D000CC0B49B0AC07A
:1001D000B39B08C0B29B06C0B19B04C0B09B02C0D9
:1001E0000E944F00809160008BBBAFCFF894FFCF8F
:00000001FF
