:100000000C942A000C9434000C9434000C943400AA
:100010000C9434000C9434000C9434000C94340090
:100020000C9434000C9434000C9434000C94340080
:100030000C9434000C9434000C9434000C94340070
:100040000C9434000C9434000C9434000C94340060
:100050000C94340011241FBECFE5D8E0DEBFCDBF25
:100060000E9444000C9484000C94000085E585BB3C
:1000700008958AEA85BB089589E985BB089586E6D7
:1000800085BB089515BA08958FEF81BB1ABA87BB57
:1000900084BB82BB18BA81E090E045E539E926E6E9
:1000A000C99902C015BAFCCFCB9906C0CF9904C03C
:1000B00045BB83E090E0F4CFCB9B02C0CF9B14C044
:1000C000CB9902C0CF9906C0CB9B08C0CF9B06C07E
:1000D000C89904C025BB81E090E0E2CFCB9B08C06B
:1000E000CF9B06C0CE9904C035BB82E090E0D8CF4C
:1000F0008130910511F425BBD3CF8230910511F4E5
:0C01000035BBCECF45BBCCCFF894FFCF71
:00000001FF
