:100000000C942A000C943C000C943C000C943C0092
:100010000C943C000C943C000C943C000C943C0070
:100020000C943C000C943C000C943C000C943C0060
:100030000C943C000C943C000C943C000C943C0050
:100040000C943C000C943C000C943C000C943C0040
:100050000C943C0011241FBECFE5D4E0DEBFCDBF21
:1000600010E0A0E6B0E001C01D92A836B107E1F7AC
:100070000E941C010C942D020C9400002091600041
:1000800090E002C09F5F2BE09817E0F320936000A0
:10009000909361000895AA9888EC0E943E00AA9A65
:1000A00088EC0E943E00AA9808950F931F93082F92
:1000B00085B3887F85BB802F807F85BB0E944B00E6
:1000C00010E00F70107084E0000F111F8A95E1F7A7
:1000D00005BB0E944B001F910F9108951F93182F8D
:1000E00081E085BB15BA812F807F816085BB0E942E
:1000F0004B001295107F116015BB0E944B001F91A1
:100100000895EF92FF921F93CF93DF937C0181E0DC
:1001100085BB15BA10E013C0103119F480EC0E94B1
:1001200055008881807F816085BB0E944B0088815B
:100130008295807F816085BB0E944B001F5FE70135
:10014000C10FD11D8881882339F7DF91CF911F918D
:10015000FF90EF900895EF92FF920F931F93182F47
:1001600064E60E94FA01482F282F30E08CE99FEFC7
:10017000289F7001299FF00C389FF00C1124C701B3
:10018000810F911D6AE070E00E940602062F842F05
:10019000805D0E946E00802F805D0E946E00105D69
:1001A0001E0D86EF9FEF089F002D1124802F810FD9
:1001B0000E946E001F910F91FF90EF900895882389
:1001C00029F4862F80580E9455000895813021F42B
:1001D000862F80540E94550008950AC020E030E028
:1001E00000002F5F3F4F4CE02C3C3407C9F70197CC
:1001F0000097A1F7089584E190E00E94ED0085B397
:10020000809362008FEF84BB8FE090E00E94ED004E
:1002100080E285BB81E00E94550082E00E9455008B
:1002200080E80E94550084E190E00E94ED0008956E
:1002300081E00E94550008957F928F929F92AF9225
:10024000BF92CF92DF92EF92FF920F931F93CF93C3
:10025000DF938EE081BB1ABA0E94FB001ABA8FE0CE
:1002600087BB80E287B987E886B9E0E27E2E11E09D
:1002700071E2972E62E2862E53E2A52E05E041E060
:10028000E42EF12CC0E9D1E036E0B32E24E0D22EEA
:1002900099E0C92E109263001092640010926500DC
:1002A0001092660077B8369A3699FECF85B1893CB0
:1002B00010F01093640097B8369A3699FECF85B146
:1002C000893C10F01093650087B8369A3699FECFB6
:1002D00085B1893C10F010936300A7B8369A36991F
:1002E000FECF85B1893C10F01093660080916300C9
:1002F000813051F490916500913099F480916400BF
:10030000882379F498BB0DC0882309F048C08091F8
:1003100065008130B1F480916400813091F4D8BAE5
:1003200010C080916500882309F039C08091640075
:10033000813009F408BB80916400882381F5C8BA34
:100340002EC020916500222361F4809164008130E9
:1003500041F4B8BA88EE93E0FE013197F1F70197C6
:10036000D9F7809164008823D1F42223C1F48091CD
:1003700066008823A1F408BB809167008F5F80939B
:100380006700970102C0220F331F8A95E2F722BB54
:1003900080ED97E0FE013197F1F70197D9F7CF9BF8
:1003A00018BA80E060E00E94DF00809164000E9443
:1003B000AB0080E065E00E94DF00809165000E9454
:1003C000AB0080E069E00E94DF00809163000E9442
:1003D000AB0081E060E00E94DF00809166000E9437
:1003E000AB0081E066E00E94DF00809167000E9420
:1003F000AB0050CF991B79E004C0991F961708F005
:10040000961B881F7A95C9F78095089597FB092E4A
:1004100007260AD077FD04D00CD006D000201AF4AD
:10042000709561957F4F0895F6F7909581959F4F50
:100430000895AA1BBB1B51E107C0AA1FBB1FA6172B
:10044000B70710F0A61BB70B881F991F5A95A9F77D
:0E04500080959095BC01CD010895F894FFCFE2
:00000001FF
